:0A0000000C946C000C9400000C94AA
:10000A0000000C9400000C9400000C9400000C9466
:10001A0000000C9400000C9400000C9400000C9456
:10002A0000000C9400000C9400000C9400000C9446
:10003A0000000C9400000C9400000C9400000C9436
:10004A0000000C9400000C9400000C9400000C9426
:10005A0000000C9400000C9400000C94000010277F
:10006A00E80364000A00010000100001100001000A
:10007A0041475249004D4F4E49544F52494E47004D
:10008A0048554D49444954593A0048554D494449FF
:10009A00545920414C455254004D4F4953545552DE
:1000AA0045204C4F570080C0050000037A000B0022
:1000BA0005037F000A0010038A000F001A03940048
:1000CA000D002903A30002003603B0000000F894D3
:1000DA00EE27EFBBF1E0F5BFE5BF8DE0A2E0BB275D
:1000EA00ED938A95E9F780E098E0A0E0B1E0ED931E
:1000FA000197E9F7E2EBF0E085919591009761F0BD
:10010A00A591B59105901590BF01F00105900D924A
:10011A000197E1F7FB01F0CFE0E0EEBBEFEFEDBFB7
:10012A00E8E0EEBFC0E0D3E00C94F300AA93E881C4
:10013A00E06CE0937C008BE18A95F1F7E0917A001C
:10014A00E064E0937A00E0917A00E071E1F3E091F3
:10015A007A00E061E0937A00E0917800F09179000A
:10016A0077C1BA93AA9321970E948F02AF81B8856B
:10017A00EAE0F0E00E9458028F01AF81B885EAE018
:10018A00F0E00E9470023E2FD801EAE0F0E00E94FF
:10019A0070022E2FD801EAE0F0E00E9458025E2F8A
:1001AA00A52FBB27EAE0F0E00E9473024E2FA52F8D
:1001BA00B0E0EAE0F0E00E946B02EE83AE81A05D5F
:1001CA00F4D0A42FA05DF1D0A22FA05DEED0A32F72
:1001DA00A05DEBD00E94960229960895E0E8E0938C
:1001EA006100E0E0E0936100E4E0E4B9E0E0E5B951
:1001FA00E7B9E8B9E4E0EAB9E2E1EBB9E0E0E4BD85
:10020A00E5BDE6BDE7BDE8BDE0938000E09381006F
:10021A00E0938500E0938400E0938700E0938600F2
:10022A00E0938900E0938800E0938B00E0938A00D2
:10023A00E093B600E093B000E093B100E093B2001F
:10024A00E093B300E093B400E0936E00E0936F0094
:10025A00E0937000E0936900EDBBE0936800E093DF
:10026A00C000E8E1E093C100E6E0E093C200E0E00C
:10027A00E093C500E3E3E093C400E0E8E0BFE0E018
:10028A00E0937F00E0937E00E0ECE0937C00E3E8FB
:10029A00E0937A00E0E0E0937B00ECBDE093BC00E1
:1002AA005A98A0E1A8D00E942F02A0E0B3E092D011
:1002BA00E0E0EA93A1E060D0A5E0B3E00E94340256
:1002CA00A5E034DFDF01E9E1F0E00E9458023E2EAA
:1002DA004F2EE0E0EA93A1E04FD0A0E1B3E07AD05C
:1002EA00A32DB42D3EDF2A98E6E2F0E0E315F405EB
:1002FA003CF42A9A0E942F02AAE1B3E00E94340237
:10030A004C9907C05A9A0E942F02A9E2B3E00E94B0
:10031A003402D6CFFFCFAA93E881E07111F05D9A3B
:10032A0001C05D98E881E07211F05E9A01C05E98A2
:10033A00E881E07411F05F9A01C05F98E881E07883
:10034A0011F0289A01C028988DE08A95F1F7429A0F
:10035A008DE08A95F1F742988DE08A95F1F778C099
:10036A00AA93A881D8DFE881E295E883A881D3DF40
:10037A0085E88A95F1F76CC0AA93E881F0E0EA5C17
:10038A00FC4FE081A981AE0FEBDFA980988022960D
:10039A000895A2E00E943C02ACE0E2DFA1E00E94E4
:1003AA003C02E0E09E2EAE2E0895AA93A881AA30C0
:1003BA0011F0AC1448F0E0E0EA939394A92DDCDF45
:1003CA00A881AA3009F444C0A394409AA881C8DF3E
:1003DA0040983EC0BA93AA931A93A981BA81ED9123
:1003EA00A983BA831E2FE03019F0A12FDEDFF5CFE3
:1003FA00188123960895AA93559A569A579A209A3D
:10040A003A9A389A399A429840984198C880E8812D
:10041A00E058E0933803E881E054E0933903A4E11B
:10042A00B0E00E944A020E9442020E9442020E94D6
:10043A004202A0E270DF88EC90E00197F1F7A8E2AF
:10044A008FDFA4E08DDFA5E88BDFA6E089DFA1DFDF
:10045A0021960895E0E0EA93A0E00C94C1010E947D
:10046A00EF01A0EDB7E00E944A020C94CE010E946F
:10047A00B501A3E0B0E00C944A02A0E30E94900107
:10048A0088EC90E00197F1F70895109639F080ED25
:10049A0097E00197F1F7A8951197C9F70895F19593
:1004AA00E195F04008950024112490E1AA0FBB1FA2
:1004BA00001C111C0E1A1F0A18F40E0E1F1E01C072
:1004CA00A1609A9599F7FD01D001089515D0EBDF47
:1004DA000EF4E5DF0895E7DFFD010895E894B7FF1C
:1004EA0004C0A095B09511966894F7FDD8DFDBDFBC
:1004FA00FD010EF4D4DF0895E894F7FF02C0CFDFC0
:10050A006894B7FF06C0A095B095119600F80394B9
:10051A0000FA08955A934A933A932A931A930A939C
:10052A0008955D814C813B812A8119810881089552
:00000001FF
